{
	"data": {
		"bytecode": {
			"linkReferences": {},
			"object": "608060405234801561001057600080fd5b5061032c806100206000396000f3fe608060405234801561001057600080fd5b50600436106100365760003560e01c8063188b85b41461003b578063fd7df3a51461006b575b600080fd5b61005560048036038101906100509190610167565b61009b565b60405161006291906101fa565b60405180910390f35b61008560048036038101906100809190610167565b6100c0565b60405161009291906101d8565b60405180910390f35b6000806000905060008381116100b55780925050506100bb565b50809150505b919050565b606060006002836100d1919061026e565b1415610114576040518060400160405280601481526020017f74686973206e756d62657220206973206576656e000000000000000000000000815250905061014d565b6040518060400160405280601381526020017f2074686973206e756d626572206973206f64640000000000000000000000000081525090505b919050565b600081359050610161816102df565b92915050565b60006020828403121561017957600080fd5b600061018784828501610152565b91505092915050565b600061019b82610215565b6101a58185610220565b93506101b581856020860161023b565b6101be816102ce565b840191505092915050565b6101d281610231565b82525050565b600060208201905081810360008301526101f28184610190565b905092915050565b600060208201905061020f60008301846101c9565b92915050565b600081519050919050565b600082825260208201905092915050565b6000819050919050565b60005b8381101561025957808201518184015260208101905061023e565b83811115610268576000848401525b50505050565b600061027982610231565b915061028483610231565b9250826102945761029361029f565b5b828206905092915050565b7f4e487b7100000000000000000000000000000000000000000000000000000000600052601260045260246000fd5b6000601f19601f8301169050919050565b6102e881610231565b81146102f357600080fd5b5056fea2646970667358221220de04d0c52a32d88a3b3225dfbfd19a0631ebaa21a1e014fb9c3a98b0f38eb60e64736f6c63430008000033",
			"opcodes": "PUSH1 0x80 PUSH1 0x40 MSTORE CALLVALUE DUP1 ISZERO PUSH2 0x10 JUMPI PUSH1 0x0 DUP1 REVERT JUMPDEST POP PUSH2 0x32C DUP1 PUSH2 0x20 PUSH1 0x0 CODECOPY PUSH1 0x0 RETURN INVALID PUSH1 0x80 PUSH1 0x40 MSTORE CALLVALUE DUP1 ISZERO PUSH2 0x10 JUMPI PUSH1 0x0 DUP1 REVERT JUMPDEST POP PUSH1 0x4 CALLDATASIZE LT PUSH2 0x36 JUMPI PUSH1 0x0 CALLDATALOAD PUSH1 0xE0 SHR DUP1 PUSH4 0x188B85B4 EQ PUSH2 0x3B JUMPI DUP1 PUSH4 0xFD7DF3A5 EQ PUSH2 0x6B JUMPI JUMPDEST PUSH1 0x0 DUP1 REVERT JUMPDEST PUSH2 0x55 PUSH1 0x4 DUP1 CALLDATASIZE SUB DUP2 ADD SWAP1 PUSH2 0x50 SWAP2 SWAP1 PUSH2 0x167 JUMP JUMPDEST PUSH2 0x9B JUMP JUMPDEST PUSH1 0x40 MLOAD PUSH2 0x62 SWAP2 SWAP1 PUSH2 0x1FA JUMP JUMPDEST PUSH1 0x40 MLOAD DUP1 SWAP2 SUB SWAP1 RETURN JUMPDEST PUSH2 0x85 PUSH1 0x4 DUP1 CALLDATASIZE SUB DUP2 ADD SWAP1 PUSH2 0x80 SWAP2 SWAP1 PUSH2 0x167 JUMP JUMPDEST PUSH2 0xC0 JUMP JUMPDEST PUSH1 0x40 MLOAD PUSH2 0x92 SWAP2 SWAP1 PUSH2 0x1D8 JUMP JUMPDEST PUSH1 0x40 MLOAD DUP1 SWAP2 SUB SWAP1 RETURN JUMPDEST PUSH1 0x0 DUP1 PUSH1 0x0 SWAP1 POP PUSH1 0x0 DUP4 DUP2 GT PUSH2 0xB5 JUMPI DUP1 SWAP3 POP POP POP PUSH2 0xBB JUMP JUMPDEST POP DUP1 SWAP2 POP POP JUMPDEST SWAP2 SWAP1 POP JUMP JUMPDEST PUSH1 0x60 PUSH1 0x0 PUSH1 0x2 DUP4 PUSH2 0xD1 SWAP2 SWAP1 PUSH2 0x26E JUMP JUMPDEST EQ ISZERO PUSH2 0x114 JUMPI PUSH1 0x40 MLOAD DUP1 PUSH1 0x40 ADD PUSH1 0x40 MSTORE DUP1 PUSH1 0x14 DUP2 MSTORE PUSH1 0x20 ADD PUSH32 0x74686973206E756D62657220206973206576656E000000000000000000000000 DUP2 MSTORE POP SWAP1 POP PUSH2 0x14D JUMP JUMPDEST PUSH1 0x40 MLOAD DUP1 PUSH1 0x40 ADD PUSH1 0x40 MSTORE DUP1 PUSH1 0x13 DUP2 MSTORE PUSH1 0x20 ADD PUSH32 0x2074686973206E756D626572206973206F646400000000000000000000000000 DUP2 MSTORE POP SWAP1 POP JUMPDEST SWAP2 SWAP1 POP JUMP JUMPDEST PUSH1 0x0 DUP2 CALLDATALOAD SWAP1 POP PUSH2 0x161 DUP2 PUSH2 0x2DF JUMP JUMPDEST SWAP3 SWAP2 POP POP JUMP JUMPDEST PUSH1 0x0 PUSH1 0x20 DUP3 DUP5 SUB SLT ISZERO PUSH2 0x179 JUMPI PUSH1 0x0 DUP1 REVERT JUMPDEST PUSH1 0x0 PUSH2 0x187 DUP5 DUP3 DUP6 ADD PUSH2 0x152 JUMP JUMPDEST SWAP2 POP POP SWAP3 SWAP2 POP POP JUMP JUMPDEST PUSH1 0x0 PUSH2 0x19B DUP3 PUSH2 0x215 JUMP JUMPDEST PUSH2 0x1A5 DUP2 DUP6 PUSH2 0x220 JUMP JUMPDEST SWAP4 POP PUSH2 0x1B5 DUP2 DUP6 PUSH1 0x20 DUP7 ADD PUSH2 0x23B JUMP JUMPDEST PUSH2 0x1BE DUP2 PUSH2 0x2CE JUMP JUMPDEST DUP5 ADD SWAP2 POP POP SWAP3 SWAP2 POP POP JUMP JUMPDEST PUSH2 0x1D2 DUP2 PUSH2 0x231 JUMP JUMPDEST DUP3 MSTORE POP POP JUMP JUMPDEST PUSH1 0x0 PUSH1 0x20 DUP3 ADD SWAP1 POP DUP2 DUP2 SUB PUSH1 0x0 DUP4 ADD MSTORE PUSH2 0x1F2 DUP2 DUP5 PUSH2 0x190 JUMP JUMPDEST SWAP1 POP SWAP3 SWAP2 POP POP JUMP JUMPDEST PUSH1 0x0 PUSH1 0x20 DUP3 ADD SWAP1 POP PUSH2 0x20F PUSH1 0x0 DUP4 ADD DUP5 PUSH2 0x1C9 JUMP JUMPDEST SWAP3 SWAP2 POP POP JUMP JUMPDEST PUSH1 0x0 DUP2 MLOAD SWAP1 POP SWAP2 SWAP1 POP JUMP JUMPDEST PUSH1 0x0 DUP3 DUP3 MSTORE PUSH1 0x20 DUP3 ADD SWAP1 POP SWAP3 SWAP2 POP POP JUMP JUMPDEST PUSH1 0x0 DUP2 SWAP1 POP SWAP2 SWAP1 POP JUMP JUMPDEST PUSH1 0x0 JUMPDEST DUP4 DUP2 LT ISZERO PUSH2 0x259 JUMPI DUP1 DUP3 ADD MLOAD DUP2 DUP5 ADD MSTORE PUSH1 0x20 DUP2 ADD SWAP1 POP PUSH2 0x23E JUMP JUMPDEST DUP4 DUP2 GT ISZERO PUSH2 0x268 JUMPI PUSH1 0x0 DUP5 DUP5 ADD MSTORE JUMPDEST POP POP POP POP JUMP JUMPDEST PUSH1 0x0 PUSH2 0x279 DUP3 PUSH2 0x231 JUMP JUMPDEST SWAP2 POP PUSH2 0x284 DUP4 PUSH2 0x231 JUMP JUMPDEST SWAP3 POP DUP3 PUSH2 0x294 JUMPI PUSH2 0x293 PUSH2 0x29F JUMP JUMPDEST JUMPDEST DUP3 DUP3 MOD SWAP1 POP SWAP3 SWAP2 POP POP JUMP JUMPDEST PUSH32 0x4E487B7100000000000000000000000000000000000000000000000000000000 PUSH1 0x0 MSTORE PUSH1 0x12 PUSH1 0x4 MSTORE PUSH1 0x24 PUSH1 0x0 REVERT JUMPDEST PUSH1 0x0 PUSH1 0x1F NOT PUSH1 0x1F DUP4 ADD AND SWAP1 POP SWAP2 SWAP1 POP JUMP JUMPDEST PUSH2 0x2E8 DUP2 PUSH2 0x231 JUMP JUMPDEST DUP2 EQ PUSH2 0x2F3 JUMPI PUSH1 0x0 DUP1 REVERT JUMPDEST POP JUMP INVALID LOG2 PUSH5 0x6970667358 0x22 SLT KECCAK256 0xDE DIV 0xD0 0xC5 0x2A ORIGIN 0xD8 DUP11 EXTCODESIZE ORIGIN 0x25 0xDF 0xBF 0xD1 SWAP11 MOD BALANCE 0xEB 0xAA 0x21 LOG1 0xE0 EQ 0xFB SWAP13 GASPRICE SWAP9 0xB0 RETURN DUP15 0xB6 0xE PUSH5 0x736F6C6343 STOP ADDMOD STOP STOP CALLER "
		},
		"gasEstimates": {
			"creation": {
				"codeDepositCost": "162400",
				"executionCost": "208",
				"totalCost": "162608"
			},
			"external": {
				"checkEvenOdd(uint256)": "infinite",
				"sum(uint256)": "infinite"
			}
		},
		"methodIdentifiers": {
			"checkEvenOdd(uint256)": "fd7df3a5",
			"sum(uint256)": "188b85b4"
		}
	},
	"abi": [
		{
			"inputs": [
				{
					"internalType": "uint256",
					"name": "num",
					"type": "uint256"
				}
			],
			"name": "checkEvenOdd",
			"outputs": [
				{
					"internalType": "string",
					"name": "",
					"type": "string"
				}
			],
			"stateMutability": "pure",
			"type": "function"
		},
		{
			"inputs": [
				{
					"internalType": "uint256",
					"name": "x",
					"type": "uint256"
				}
			],
			"name": "sum",
			"outputs": [
				{
					"internalType": "uint256",
					"name": "",
					"type": "uint256"
				}
			],
			"stateMutability": "pure",
			"type": "function"
		}
	]
}